{
  "contractName": "Donate",
  "abi": [
    {
      "inputs": [],
      "payable": false,
      "stateMutability": "nonpayable",
      "type": "constructor"
    },
    {
      "constant": false,
      "inputs": [],
      "name": "create",
      "outputs": [],
      "payable": false,
      "stateMutability": "nonpayable",
      "type": "function"
    }
  ],
  "bytecode": "0x6080604052348015600f57600080fd5b5060868061001e6000396000f300608060405260043610603f576000357c0100000000000000000000000000000000000000000000000000000000900463ffffffff168063efc81a8c146044575b600080fd5b348015604f57600080fd5b5060566058565b005b5600a165627a7a723058201c4f61ae928cac6f31296b804844e7115612f133a14074566e31b20e835a5b880029",
  "source": "pragma solidity ^0.4.4;\n\n\ncontract Donate {\n  constructor() {\n    // constructor\n  }\n\n  function create() {\n\n  }\n}\n\n\n/* contract Donate {\n\n\n\naddress public owner;\n\nuint256 public minimumDonation;\n\nuint256 public totalDonated;\n\nuint 256 public numberOfDonations;\n\nUint256 public maxAmountOfDonations = 100;\n\naddress[] public donaters;\n\n\n\nstruct Donater {\n\n      uint256 amountDonated;\n\n      uint256 numberSelected;\n\n   }\n\n\n\nmapping(address => Donater) public donaterInfo;\n\n\n\n// With this, I could do something like this donaterInfo[address].amountDonated */\n",
  "sourcePath": "/Users/randallkanna/Documents/code/eth/roulette/contracts/Donate.sol",
  "compiler": {
    "name": "solc",
    "version": "0.4.23+commit.124ca40d.Emscripten.clang"
  },
  "schemaVersion": "2.0.0",
  "updatedAt": "2018-06-01T00:29:17.967Z"
}