{
  "contractName": "Donate",
  "abi": [
    {
      "constant": true,
      "inputs": [],
      "name": "totalDonated",
      "outputs": [
        {
          "name": "",
          "type": "uint256"
        }
      ],
      "payable": false,
      "stateMutability": "view",
      "type": "function"
    },
    {
      "constant": true,
      "inputs": [],
      "name": "maxAmountOfDonations",
      "outputs": [
        {
          "name": "",
          "type": "uint256"
        }
      ],
      "payable": false,
      "stateMutability": "view",
      "type": "function"
    },
    {
      "constant": true,
      "inputs": [
        {
          "name": "",
          "type": "address"
        }
      ],
      "name": "donaterInfo",
      "outputs": [
        {
          "name": "amountDonated",
          "type": "uint256"
        },
        {
          "name": "numberSelected",
          "type": "uint256"
        },
        {
          "name": "charity",
          "type": "address"
        }
      ],
      "payable": false,
      "stateMutability": "view",
      "type": "function"
    },
    {
      "constant": true,
      "inputs": [],
      "name": "owner",
      "outputs": [
        {
          "name": "",
          "type": "address"
        }
      ],
      "payable": false,
      "stateMutability": "view",
      "type": "function"
    },
    {
      "constant": true,
      "inputs": [],
      "name": "minimumDonation",
      "outputs": [
        {
          "name": "",
          "type": "uint256"
        }
      ],
      "payable": false,
      "stateMutability": "view",
      "type": "function"
    },
    {
      "constant": true,
      "inputs": [
        {
          "name": "",
          "type": "uint256"
        }
      ],
      "name": "donaters",
      "outputs": [
        {
          "name": "",
          "type": "address"
        }
      ],
      "payable": false,
      "stateMutability": "view",
      "type": "function"
    },
    {
      "constant": true,
      "inputs": [],
      "name": "numberOfDonations",
      "outputs": [
        {
          "name": "",
          "type": "uint256"
        }
      ],
      "payable": false,
      "stateMutability": "view",
      "type": "function"
    },
    {
      "inputs": [],
      "payable": false,
      "stateMutability": "nonpayable",
      "type": "constructor"
    },
    {
      "constant": false,
      "inputs": [
        {
          "name": "charity",
          "type": "address"
        }
      ],
      "name": "donate",
      "outputs": [],
      "payable": true,
      "stateMutability": "payable",
      "type": "function"
    },
    {
      "constant": true,
      "inputs": [
        {
          "name": "donater",
          "type": "address"
        }
      ],
      "name": "checkDonaterExists",
      "outputs": [
        {
          "name": "",
          "type": "bool"
        }
      ],
      "payable": false,
      "stateMutability": "view",
      "type": "function"
    },
    {
      "constant": false,
      "inputs": [],
      "name": "generateCharityWinner",
      "outputs": [],
      "payable": false,
      "stateMutability": "nonpayable",
      "type": "function"
    },
    {
      "constant": false,
      "inputs": [
        {
          "name": "charity",
          "type": "address"
        }
      ],
      "name": "transferFundsToCharity",
      "outputs": [],
      "payable": false,
      "stateMutability": "nonpayable",
      "type": "function"
    },
    {
      "constant": false,
      "inputs": [],
      "name": "resetContractData",
      "outputs": [],
      "payable": false,
      "stateMutability": "nonpayable",
      "type": "function"
    }
  ],
  "bytecode": "0x6080604052603260045534801561001557600080fd5b50336000806101000a81548173ffffffffffffffffffffffffffffffffffffffff021916908373ffffffffffffffffffffffffffffffffffffffff1602179055506107ac806100656000396000f3006080604052600436106100b8576000357c0100000000000000000000000000000000000000000000000000000000900463ffffffff168062362a95146100bd578062b37044146100f35780630298b5fb1461011e5780636276f73e146101495780638063c2c71461018c5780638da5cb5b1461021d57806396d8f4f3146102745780639b9405731461029f578063c0f3e073146102b6578063e9a84942146102cd578063f440f65d1461033a578063f8d57c3714610365575b600080fd5b6100f1600480360381019080803573ffffffffffffffffffffffffffffffffffffffff1690602001909291905050506103c0565b005b3480156100ff57600080fd5b5061010861054f565b6040518082815260200191505060405180910390f35b34801561012a57600080fd5b50610133610555565b6040518082815260200191505060405180910390f35b34801561015557600080fd5b5061018a600480360381019080803573ffffffffffffffffffffffffffffffffffffffff16906020019092919050505061055b565b005b34801561019857600080fd5b506101cd600480360381019080803573ffffffffffffffffffffffffffffffffffffffff1690602001909291905050506105af565b604051808481526020018381526020018273ffffffffffffffffffffffffffffffffffffffff1673ffffffffffffffffffffffffffffffffffffffff168152602001935050505060405180910390f35b34801561022957600080fd5b506102326105f9565b604051808273ffffffffffffffffffffffffffffffffffffffff1673ffffffffffffffffffffffffffffffffffffffff16815260200191505060405180910390f35b34801561028057600080fd5b5061028961061e565b6040518082815260200191505060405180910390f35b3480156102ab57600080fd5b506102b4610624565b005b3480156102c257600080fd5b506102cb610626565b005b3480156102d957600080fd5b506102f860048036038101908080359060200190929190505050610648565b604051808273ffffffffffffffffffffffffffffffffffffffff1673ffffffffffffffffffffffffffffffffffffffff16815260200191505060405180910390f35b34801561034657600080fd5b5061034f610686565b6040518082815260200191505060405180910390f35b34801561037157600080fd5b506103a6600480360381019080803573ffffffffffffffffffffffffffffffffffffffff16906020019092919050505061068c565b604051808215151515815260200191505060405180910390f35b6103c93361068c565b1515156103d557600080fd5b60015434101515156103e657600080fd5b34600660003373ffffffffffffffffffffffffffffffffffffffff1673ffffffffffffffffffffffffffffffffffffffff1681526020019081526020016000206000018190555080600660003373ffffffffffffffffffffffffffffffffffffffff1673ffffffffffffffffffffffffffffffffffffffff16815260200190815260200160002060020160006101000a81548173ffffffffffffffffffffffffffffffffffffffff021916908373ffffffffffffffffffffffffffffffffffffffff16021790555060036000815480929190600101919050555060053390806001815401808255809150509060018203906000526020600020016000909192909190916101000a81548173ffffffffffffffffffffffffffffffffffffffff021916908373ffffffffffffffffffffffffffffffffffffffff160217905550503460026000828254019250508190555060045460035410151561054c5761054b610624565b5b50565b60025481565b60045481565b8073ffffffffffffffffffffffffffffffffffffffff166108fc6002549081150290604051600060405180830381858888f193505050501580156105a3573d6000803e3d6000fd5b506105ac610626565b50565b60066020528060005260406000206000915090508060000154908060010154908060020160009054906101000a900473ffffffffffffffffffffffffffffffffffffffff16905083565b6000809054906101000a900473ffffffffffffffffffffffffffffffffffffffff1681565b60015481565b565b6000600581610635919061072f565b5060006002819055506000600381905550565b60058181548110151561065757fe5b906000526020600020016000915054906101000a900473ffffffffffffffffffffffffffffffffffffffff1681565b60035481565b600080600090505b600580549050811015610724578273ffffffffffffffffffffffffffffffffffffffff166005828154811015156106c757fe5b9060005260206000200160009054906101000a900473ffffffffffffffffffffffffffffffffffffffff1673ffffffffffffffffffffffffffffffffffffffff1614156107175760019150610729565b8080600101915050610694565b600091505b50919050565b81548183558181111561075657818360005260206000209182019101610755919061075b565b5b505050565b61077d91905b80821115610779576000816000905550600101610761565b5090565b905600a165627a7a72305820aa999f728bf918dc97c9b353c145ceb67252ad5d410a679267dd796a1f0b82440029",
  "source": "pragma solidity ^0.4.4;\n\n\ncontract Donate {\n  address public owner;\n  uint256 public minimumDonation;\n  uint256 public totalDonated;\n  uint256 public numberOfDonations;\n  uint256 public maxAmountOfDonations = 50;\n  address[] public donaters;\n\n  struct Donater {\n    uint256 amountDonated;\n    uint256 numberSelected;\n    address charity;\n  }\n\n  mapping(address => Donater) public donaterInfo;\n\n  constructor() {\n    owner = msg.sender;\n  }\n\n  function donate(address charity) public payable {\n    // TODO - require() // that charity exists\n    require(!checkDonaterExists(msg.sender));\n    require(msg.value >= minimumDonation);\n\n    donaterInfo[msg.sender].amountDonated = msg.value;\n    donaterInfo[msg.sender].charity = charity;\n\n    numberOfDonations++;\n    donaters.push(msg.sender);\n    totalDonated += msg.value;\n\n    if (numberOfDonations >= maxAmountOfDonations) generateCharityWinner();\n  }\n\n  function checkDonaterExists(address donater) public constant returns(bool) {\n    for(uint256 i = 0; i < donaters.length; i++){\n      if(donaters[i] == donater) return true;\n    }\n\n    return false;\n  }\n\n  function generateCharityWinner() public {\n    /* address charitySelected = */\n   // find winner\n    /* transferFundsToCharity(charitySelected); */\n  }\n\n  function transferFundsToCharity(address charity) public {\n    charity.transfer(totalDonated);\n    resetContractData();\n  }\n\n  function resetContractData(){\n    donaters.length = 0;\n    totalDonated = 0;\n    numberOfDonations = 0;\n  }\n}\n",
  "sourcePath": "/Users/randallkanna/Documents/code/eth/roulette/contracts/Donate.sol",
  "compiler": {
    "name": "solc",
    "version": "0.4.23+commit.124ca40d.Emscripten.clang"
  },
  "schemaVersion": "2.0.0",
  "updatedAt": "2018-06-01T23:52:19.314Z"
}