{
  "contractName": "Roulette",
  "abi": [
    {
      "inputs": [],
      "payable": false,
      "stateMutability": "nonpayable",
      "type": "constructor"
    },
    {
      "constant": false,
      "inputs": [],
      "name": "create",
      "outputs": [],
      "payable": false,
      "stateMutability": "nonpayable",
      "type": "function"
    }
  ],
  "bytecode": "0x6080604052348015600f57600080fd5b5060868061001e6000396000f300608060405260043610603f576000357c0100000000000000000000000000000000000000000000000000000000900463ffffffff168063efc81a8c146044575b600080fd5b348015604f57600080fd5b5060566058565b005b5600a165627a7a723058208988c4ba4734735caed39e37d7f09415a19b08ba5e0456e491f87ab0196484660029",
  "source": "pragma solidity ^0.4.4;\n\n\ncontract Roulette {\n  constructor() {\n    // constructor\n  }\n\n  function create() {\n    \n  }\n}\n",
  "sourcePath": "/Users/randallkanna/Documents/code/eth/roulette/contracts/Roulette.sol",
  "compiler": {
    "name": "solc",
    "version": "0.4.23+commit.124ca40d.Emscripten.clang"
  },
  "schemaVersion": "2.0.0",
  "updatedAt": "2018-05-26T18:03:07.726Z"
}